{
  "_format": "hh3-artifact-1",
  "contractName": "RWA1155",
  "sourceName": "contracts/RWA1155.sol",
  "abi": [
    {
      "inputs": [
        {
          "internalType": "string",
          "name": "uri",
          "type": "string"
        }
      ],
      "stateMutability": "nonpayable",
      "type": "constructor"
    },
    {
      "inputs": [],
      "name": "AccessControlBadConfirmation",
      "type": "error"
    },
    {
      "inputs": [
        {
          "internalType": "address",
          "name": "account",
          "type": "address"
        },
        {
          "internalType": "bytes32",
          "name": "neededRole",
          "type": "bytes32"
        }
      ],
      "name": "AccessControlUnauthorizedAccount",
      "type": "error"
    },
    {
      "inputs": [
        {
          "internalType": "address",
          "name": "sender",
          "type": "address"
        },
        {
          "internalType": "uint256",
          "name": "balance",
          "type": "uint256"
        },
        {
          "internalType": "uint256",
          "name": "needed",
          "type": "uint256"
        },
        {
          "internalType": "uint256",
          "name": "tokenId",
          "type": "uint256"
        }
      ],
      "name": "ERC1155InsufficientBalance",
      "type": "error"
    },
    {
      "inputs": [
        {
          "internalType": "address",
          "name": "approver",
          "type": "address"
        }
      ],
      "name": "ERC1155InvalidApprover",
      "type": "error"
    },
    {
      "inputs": [
        {
          "internalType": "uint256",
          "name": "idsLength",
          "type": "uint256"
        },
        {
          "internalType": "uint256",
          "name": "valuesLength",
          "type": "uint256"
        }
      ],
      "name": "ERC1155InvalidArrayLength",
      "type": "error"
    },
    {
      "inputs": [
        {
          "internalType": "address",
          "name": "operator",
          "type": "address"
        }
      ],
      "name": "ERC1155InvalidOperator",
      "type": "error"
    },
    {
      "inputs": [
        {
          "internalType": "address",
          "name": "receiver",
          "type": "address"
        }
      ],
      "name": "ERC1155InvalidReceiver",
      "type": "error"
    },
    {
      "inputs": [
        {
          "internalType": "address",
          "name": "sender",
          "type": "address"
        }
      ],
      "name": "ERC1155InvalidSender",
      "type": "error"
    },
    {
      "inputs": [
        {
          "internalType": "address",
          "name": "operator",
          "type": "address"
        },
        {
          "internalType": "address",
          "name": "owner",
          "type": "address"
        }
      ],
      "name": "ERC1155MissingApprovalForAll",
      "type": "error"
    },
    {
      "inputs": [],
      "name": "EnforcedPause",
      "type": "error"
    },
    {
      "inputs": [],
      "name": "ExpectedPause",
      "type": "error"
    },
    {
      "anonymous": false,
      "inputs": [
        {
          "indexed": true,
          "internalType": "address",
          "name": "account",
          "type": "address"
        },
        {
          "indexed": true,
          "internalType": "address",
          "name": "operator",
          "type": "address"
        },
        {
          "indexed": false,
          "internalType": "bool",
          "name": "approved",
          "type": "bool"
        }
      ],
      "name": "ApprovalForAll",
      "type": "event"
    },
    {
      "anonymous": false,
      "inputs": [
        {
          "indexed": false,
          "internalType": "address",
          "name": "account",
          "type": "address"
        }
      ],
      "name": "Paused",
      "type": "event"
    },
    {
      "anonymous": false,
      "inputs": [
        {
          "indexed": true,
          "internalType": "bytes32",
          "name": "role",
          "type": "bytes32"
        },
        {
          "indexed": true,
          "internalType": "bytes32",
          "name": "previousAdminRole",
          "type": "bytes32"
        },
        {
          "indexed": true,
          "internalType": "bytes32",
          "name": "newAdminRole",
          "type": "bytes32"
        }
      ],
      "name": "RoleAdminChanged",
      "type": "event"
    },
    {
      "anonymous": false,
      "inputs": [
        {
          "indexed": true,
          "internalType": "bytes32",
          "name": "role",
          "type": "bytes32"
        },
        {
          "indexed": true,
          "internalType": "address",
          "name": "account",
          "type": "address"
        },
        {
          "indexed": true,
          "internalType": "address",
          "name": "sender",
          "type": "address"
        }
      ],
      "name": "RoleGranted",
      "type": "event"
    },
    {
      "anonymous": false,
      "inputs": [
        {
          "indexed": true,
          "internalType": "bytes32",
          "name": "role",
          "type": "bytes32"
        },
        {
          "indexed": true,
          "internalType": "address",
          "name": "account",
          "type": "address"
        },
        {
          "indexed": true,
          "internalType": "address",
          "name": "sender",
          "type": "address"
        }
      ],
      "name": "RoleRevoked",
      "type": "event"
    },
    {
      "anonymous": false,
      "inputs": [
        {
          "indexed": true,
          "internalType": "address",
          "name": "operator",
          "type": "address"
        },
        {
          "indexed": true,
          "internalType": "address",
          "name": "from",
          "type": "address"
        },
        {
          "indexed": true,
          "internalType": "address",
          "name": "to",
          "type": "address"
        },
        {
          "indexed": false,
          "internalType": "uint256[]",
          "name": "ids",
          "type": "uint256[]"
        },
        {
          "indexed": false,
          "internalType": "uint256[]",
          "name": "values",
          "type": "uint256[]"
        }
      ],
      "name": "TransferBatch",
      "type": "event"
    },
    {
      "anonymous": false,
      "inputs": [
        {
          "indexed": true,
          "internalType": "address",
          "name": "operator",
          "type": "address"
        },
        {
          "indexed": true,
          "internalType": "address",
          "name": "from",
          "type": "address"
        },
        {
          "indexed": true,
          "internalType": "address",
          "name": "to",
          "type": "address"
        },
        {
          "indexed": false,
          "internalType": "uint256",
          "name": "id",
          "type": "uint256"
        },
        {
          "indexed": false,
          "internalType": "uint256",
          "name": "value",
          "type": "uint256"
        }
      ],
      "name": "TransferSingle",
      "type": "event"
    },
    {
      "anonymous": false,
      "inputs": [
        {
          "indexed": false,
          "internalType": "string",
          "name": "value",
          "type": "string"
        },
        {
          "indexed": true,
          "internalType": "uint256",
          "name": "id",
          "type": "uint256"
        }
      ],
      "name": "URI",
      "type": "event"
    },
    {
      "anonymous": false,
      "inputs": [
        {
          "indexed": false,
          "internalType": "address",
          "name": "account",
          "type": "address"
        }
      ],
      "name": "Unpaused",
      "type": "event"
    },
    {
      "inputs": [],
      "name": "DEFAULT_ADMIN_ROLE",
      "outputs": [
        {
          "internalType": "bytes32",
          "name": "",
          "type": "bytes32"
        }
      ],
      "stateMutability": "view",
      "type": "function"
    },
    {
      "inputs": [],
      "name": "MINTER_ROLE",
      "outputs": [
        {
          "internalType": "bytes32",
          "name": "",
          "type": "bytes32"
        }
      ],
      "stateMutability": "view",
      "type": "function"
    },
    {
      "inputs": [],
      "name": "PAUSER_ROLE",
      "outputs": [
        {
          "internalType": "bytes32",
          "name": "",
          "type": "bytes32"
        }
      ],
      "stateMutability": "view",
      "type": "function"
    },
    {
      "inputs": [
        {
          "internalType": "address",
          "name": "account",
          "type": "address"
        },
        {
          "internalType": "uint256",
          "name": "id",
          "type": "uint256"
        }
      ],
      "name": "balanceOf",
      "outputs": [
        {
          "internalType": "uint256",
          "name": "",
          "type": "uint256"
        }
      ],
      "stateMutability": "view",
      "type": "function"
    },
    {
      "inputs": [
        {
          "internalType": "address[]",
          "name": "accounts",
          "type": "address[]"
        },
        {
          "internalType": "uint256[]",
          "name": "ids",
          "type": "uint256[]"
        }
      ],
      "name": "balanceOfBatch",
      "outputs": [
        {
          "internalType": "uint256[]",
          "name": "",
          "type": "uint256[]"
        }
      ],
      "stateMutability": "view",
      "type": "function"
    },
    {
      "inputs": [
        {
          "internalType": "address",
          "name": "from",
          "type": "address"
        },
        {
          "internalType": "uint256",
          "name": "id",
          "type": "uint256"
        },
        {
          "internalType": "uint256",
          "name": "amount",
          "type": "uint256"
        }
      ],
      "name": "burn",
      "outputs": [],
      "stateMutability": "nonpayable",
      "type": "function"
    },
    {
      "inputs": [
        {
          "internalType": "address",
          "name": "from",
          "type": "address"
        },
        {
          "internalType": "uint256[]",
          "name": "ids",
          "type": "uint256[]"
        },
        {
          "internalType": "uint256[]",
          "name": "amounts",
          "type": "uint256[]"
        }
      ],
      "name": "burnBatch",
      "outputs": [],
      "stateMutability": "nonpayable",
      "type": "function"
    },
    {
      "inputs": [
        {
          "internalType": "bytes32",
          "name": "role",
          "type": "bytes32"
        }
      ],
      "name": "getRoleAdmin",
      "outputs": [
        {
          "internalType": "bytes32",
          "name": "",
          "type": "bytes32"
        }
      ],
      "stateMutability": "view",
      "type": "function"
    },
    {
      "inputs": [
        {
          "internalType": "bytes32",
          "name": "role",
          "type": "bytes32"
        },
        {
          "internalType": "address",
          "name": "account",
          "type": "address"
        }
      ],
      "name": "grantRole",
      "outputs": [],
      "stateMutability": "nonpayable",
      "type": "function"
    },
    {
      "inputs": [
        {
          "internalType": "bytes32",
          "name": "role",
          "type": "bytes32"
        },
        {
          "internalType": "address",
          "name": "account",
          "type": "address"
        }
      ],
      "name": "hasRole",
      "outputs": [
        {
          "internalType": "bool",
          "name": "",
          "type": "bool"
        }
      ],
      "stateMutability": "view",
      "type": "function"
    },
    {
      "inputs": [
        {
          "internalType": "address",
          "name": "account",
          "type": "address"
        },
        {
          "internalType": "address",
          "name": "operator",
          "type": "address"
        }
      ],
      "name": "isApprovedForAll",
      "outputs": [
        {
          "internalType": "bool",
          "name": "",
          "type": "bool"
        }
      ],
      "stateMutability": "view",
      "type": "function"
    },
    {
      "inputs": [
        {
          "internalType": "address",
          "name": "to",
          "type": "address"
        },
        {
          "internalType": "uint256",
          "name": "id",
          "type": "uint256"
        },
        {
          "internalType": "uint256",
          "name": "amount",
          "type": "uint256"
        },
        {
          "internalType": "bytes",
          "name": "data",
          "type": "bytes"
        }
      ],
      "name": "mint",
      "outputs": [],
      "stateMutability": "nonpayable",
      "type": "function"
    },
    {
      "inputs": [
        {
          "internalType": "address",
          "name": "to",
          "type": "address"
        },
        {
          "internalType": "uint256[]",
          "name": "ids",
          "type": "uint256[]"
        },
        {
          "internalType": "uint256[]",
          "name": "amounts",
          "type": "uint256[]"
        },
        {
          "internalType": "bytes",
          "name": "data",
          "type": "bytes"
        }
      ],
      "name": "mintBatch",
      "outputs": [],
      "stateMutability": "nonpayable",
      "type": "function"
    },
    {
      "inputs": [],
      "name": "pause",
      "outputs": [],
      "stateMutability": "nonpayable",
      "type": "function"
    },
    {
      "inputs": [],
      "name": "paused",
      "outputs": [
        {
          "internalType": "bool",
          "name": "",
          "type": "bool"
        }
      ],
      "stateMutability": "view",
      "type": "function"
    },
    {
      "inputs": [
        {
          "internalType": "bytes32",
          "name": "role",
          "type": "bytes32"
        },
        {
          "internalType": "address",
          "name": "callerConfirmation",
          "type": "address"
        }
      ],
      "name": "renounceRole",
      "outputs": [],
      "stateMutability": "nonpayable",
      "type": "function"
    },
    {
      "inputs": [
        {
          "internalType": "bytes32",
          "name": "role",
          "type": "bytes32"
        },
        {
          "internalType": "address",
          "name": "account",
          "type": "address"
        }
      ],
      "name": "revokeRole",
      "outputs": [],
      "stateMutability": "nonpayable",
      "type": "function"
    },
    {
      "inputs": [
        {
          "internalType": "address",
          "name": "from",
          "type": "address"
        },
        {
          "internalType": "address",
          "name": "to",
          "type": "address"
        },
        {
          "internalType": "uint256[]",
          "name": "ids",
          "type": "uint256[]"
        },
        {
          "internalType": "uint256[]",
          "name": "values",
          "type": "uint256[]"
        },
        {
          "internalType": "bytes",
          "name": "data",
          "type": "bytes"
        }
      ],
      "name": "safeBatchTransferFrom",
      "outputs": [],
      "stateMutability": "nonpayable",
      "type": "function"
    },
    {
      "inputs": [
        {
          "internalType": "address",
          "name": "from",
          "type": "address"
        },
        {
          "internalType": "address",
          "name": "to",
          "type": "address"
        },
        {
          "internalType": "uint256",
          "name": "id",
          "type": "uint256"
        },
        {
          "internalType": "uint256",
          "name": "value",
          "type": "uint256"
        },
        {
          "internalType": "bytes",
          "name": "data",
          "type": "bytes"
        }
      ],
      "name": "safeTransferFrom",
      "outputs": [],
      "stateMutability": "nonpayable",
      "type": "function"
    },
    {
      "inputs": [
        {
          "internalType": "address",
          "name": "operator",
          "type": "address"
        },
        {
          "internalType": "bool",
          "name": "approved",
          "type": "bool"
        }
      ],
      "name": "setApprovalForAll",
      "outputs": [],
      "stateMutability": "nonpayable",
      "type": "function"
    },
    {
      "inputs": [
        {
          "internalType": "bytes4",
          "name": "interfaceId",
          "type": "bytes4"
        }
      ],
      "name": "supportsInterface",
      "outputs": [
        {
          "internalType": "bool",
          "name": "",
          "type": "bool"
        }
      ],
      "stateMutability": "view",
      "type": "function"
    },
    {
      "inputs": [],
      "name": "unpause",
      "outputs": [],
      "stateMutability": "nonpayable",
      "type": "function"
    },
    {
      "inputs": [
        {
          "internalType": "uint256",
          "name": "",
          "type": "uint256"
        }
      ],
      "name": "uri",
      "outputs": [
        {
          "internalType": "string",
          "name": "",
          "type": "string"
        }
      ],
      "stateMutability": "view",
      "type": "function"
    }
  ],
  "bytecode": "0x608060405234801562000010575f80fd5b5060405162003573380380620035738339818101604052810190620000369190620003cc565b806200004881620000cb60201b60201c565b506200005d5f801b33620000e060201b60201c565b50620000907f9f2df0fed2c77648de5860a4cc508cd0818c85b8b8a1ab4ceeef8d981c8956a633620000e060201b60201c565b50620000c37f65d7a28e3265b37a6474929f336521b332c1681b933f6cb9f3376673440d862a33620000e060201b60201c565b505062000736565b8060029081620000dc919062000652565b5050565b5f620000f38383620001dc60201b60201c565b620001d257600160035f8581526020019081526020015f205f015f8473ffffffffffffffffffffffffffffffffffffffff1673ffffffffffffffffffffffffffffffffffffffff1681526020019081526020015f205f6101000a81548160ff0219169083151502179055506200016e6200024060201b60201c565b73ffffffffffffffffffffffffffffffffffffffff168273ffffffffffffffffffffffffffffffffffffffff16847f2f8788117e7eff1d82e926ec794901d17c78024a50270940304540a733656f0d60405160405180910390a460019050620001d6565b5f90505b92915050565b5f60035f8481526020019081526020015f205f015f8373ffffffffffffffffffffffffffffffffffffffff1673ffffffffffffffffffffffffffffffffffffffff1681526020019081526020015f205f9054906101000a900460ff16905092915050565b5f33905090565b5f604051905090565b5f80fd5b5f80fd5b5f80fd5b5f80fd5b5f601f19601f8301169050919050565b7f4e487b71000000000000000000000000000000000000000000000000000000005f52604160045260245ffd5b620002a88262000260565b810181811067ffffffffffffffff82111715620002ca57620002c962000270565b5b80604052505050565b5f620002de62000247565b9050620002ec82826200029d565b919050565b5f67ffffffffffffffff8211156200030e576200030d62000270565b5b620003198262000260565b9050602081019050919050565b5f5b838110156200034557808201518184015260208101905062000328565b5f8484015250505050565b5f620003666200036084620002f1565b620002d3565b9050828152602081018484840111156200038557620003846200025c565b5b6200039284828562000326565b509392505050565b5f82601f830112620003b157620003b062000258565b5b8151620003c384826020860162000350565b91505092915050565b5f60208284031215620003e457620003e362000250565b5b5f82015167ffffffffffffffff81111562000404576200040362000254565b5b62000412848285016200039a565b91505092915050565b5f81519050919050565b7f4e487b71000000000000000000000000000000000000000000000000000000005f52602260045260245ffd5b5f60028204905060018216806200046a57607f821691505b60208210810362000480576200047f62000425565b5b50919050565b5f819050815f5260205f209050919050565b5f6020601f8301049050919050565b5f82821b905092915050565b5f60088302620004e47fffffffffffffffffffffffffffffffffffffffffffffffffffffffffffffffff82620004a7565b620004f08683620004a7565b95508019841693508086168417925050509392505050565b5f819050919050565b5f819050919050565b5f6200053a620005346200052e8462000508565b62000511565b62000508565b9050919050565b5f819050919050565b62000555836200051a565b6200056d620005648262000541565b848454620004b3565b825550505050565b5f90565b6200058362000575565b620005908184846200054a565b505050565b5b81811015620005b757620005ab5f8262000579565b60018101905062000596565b5050565b601f8211156200060657620005d08162000486565b620005db8462000498565b81016020851015620005eb578190505b62000603620005fa8562000498565b83018262000595565b50505b505050565b5f82821c905092915050565b5f620006285f19846008026200060b565b1980831691505092915050565b5f62000642838362000617565b9150826002028217905092915050565b6200065d826200041b565b67ffffffffffffffff81111562000679576200067862000270565b5b62000685825462000452565b62000692828285620005bb565b5f60209050601f831160018114620006c8575f8415620006b3578287015190505b620006bf858262000635565b8655506200072e565b601f198416620006d88662000486565b5f5b828110156200070157848901518255600182019150602085019450602081019050620006da565b868310156200072157848901516200071d601f89168262000617565b8355505b6001600288020188555050505b505050505050565b612e2f80620007445f395ff3fe608060405234801561000f575f80fd5b506004361061014a575f3560e01c80636b20c454116100c1578063d53913931161007a578063d539139314610382578063d547741f146103a0578063e63ab1e9146103bc578063e985e9c5146103da578063f242432a1461040a578063f5298aca146104265761014a565b80636b20c454146102d6578063731133e9146102f25780638456cb591461030e57806391d1485414610318578063a217fddf14610348578063a22cb465146103665761014a565b80632eb2c2d6116101135780632eb2c2d61461022a5780632f2ff15d1461024657806336568abe146102625780633f4ba83a1461027e5780634e1273f4146102885780635c975abb146102b85761014a565b8062fdd58e1461014e57806301ffc9a71461017e5780630e89341c146101ae5780631f7fdffa146101de578063248a9ca3146101fa575b5f80fd5b61016860048036038101906101639190611f5a565b610442565b6040516101759190611fa7565b60405180910390f35b61019860048036038101906101939190612015565b610497565b6040516101a5919061205a565b60405180910390f35b6101c860048036038101906101c39190612073565b6104a8565b6040516101d59190612128565b60405180910390f35b6101f860048036038101906101f39190612338565b61053a565b005b610214600480360381019061020f9190612423565b610577565b604051610221919061245d565b60405180910390f35b610244600480360381019061023f9190612476565b610594565b005b610260600480360381019061025b9190612541565b61063b565b005b61027c60048036038101906102779190612541565b61065d565b005b6102866106d8565b005b6102a2600480360381019061029d919061263f565b61070d565b6040516102af919061276c565b60405180910390f35b6102c0610814565b6040516102cd919061205a565b60405180910390f35b6102f060048036038101906102eb919061278c565b610829565b005b61030c60048036038101906103079190612814565b6108b8565b005b6103166108f5565b005b610332600480360381019061032d9190612541565b61092a565b60405161033f919061205a565b60405180910390f35b61035061098e565b60405161035d919061245d565b60405180910390f35b610380600480360381019061037b91906128be565b610994565b005b61038a6109aa565b604051610397919061245d565b60405180910390f35b6103ba60048036038101906103b59190612541565b6109ce565b005b6103c46109f0565b6040516103d1919061245d565b60405180910390f35b6103f460048036038101906103ef91906128fc565b610a14565b604051610401919061205a565b60405180910390f35b610424600480360381019061041f919061293a565b610aa2565b005b610440600480360381019061043b91906129cd565b610b49565b005b5f805f8381526020019081526020015f205f8473ffffffffffffffffffffffffffffffffffffffff1673ffffffffffffffffffffffffffffffffffffffff1681526020019081526020015f2054905092915050565b5f6104a182610bd8565b9050919050565b6060600280546104b790612a4a565b80601f01602080910402602001604051908101604052809291908181526020018280546104e390612a4a565b801561052e5780601f106105055761010080835404028352916020019161052e565b820191905f5260205f20905b81548152906001019060200180831161051157829003601f168201915b50505050509050919050565b7f9f2df0fed2c77648de5860a4cc508cd0818c85b8b8a1ab4ceeef8d981c8956a661056481610c51565b61057085858585610c65565b5050505050565b5f60035f8381526020019081526020015f20600101549050919050565b5f61059d610ce8565b90508073ffffffffffffffffffffffffffffffffffffffff168673ffffffffffffffffffffffffffffffffffffffff16141580156105e257506105e08682610a14565b155b156106265780866040517fe237d92200000000000000000000000000000000000000000000000000000000815260040161061d929190612a89565b60405180910390fd5b6106338686868686610cef565b505050505050565b61064482610577565b61064d81610c51565b6106578383610de3565b50505050565b610665610ce8565b73ffffffffffffffffffffffffffffffffffffffff168173ffffffffffffffffffffffffffffffffffffffff16146106c9576040517f6697b23200000000000000000000000000000000000000000000000000000000815260040160405180910390fd5b6106d38282610ecd565b505050565b7f65d7a28e3265b37a6474929f336521b332c1681b933f6cb9f3376673440d862a61070281610c51565b61070a610fb7565b50565b6060815183511461075957815183516040517f5b059991000000000000000000000000000000000000000000000000000000008152600401610750929190612ab0565b60405180910390fd5b5f835167ffffffffffffffff8111156107755761077461214c565b5b6040519080825280602002602001820160405280156107a35781602001602082028036833780820191505090505b5090505f5b8451811015610809576107df6107c7828761101890919063ffffffff16565b6107da838761102b90919063ffffffff16565b610442565b8282815181106107f2576107f1612ad7565b5b6020026020010181815250508060010190506107a8565b508091505092915050565b5f60045f9054906101000a900460ff16905090565b3373ffffffffffffffffffffffffffffffffffffffff168373ffffffffffffffffffffffffffffffffffffffff16148061086957506108688333610a14565b5b6108a8576040517f08c379a000000000000000000000000000000000000000000000000000000000815260040161089f90612b74565b60405180910390fd5b6108b383838361103e565b505050565b7f9f2df0fed2c77648de5860a4cc508cd0818c85b8b8a1ab4ceeef8d981c8956a66108e281610c51565b6108ee858585856110ce565b5050505050565b7f65d7a28e3265b37a6474929f336521b332c1681b933f6cb9f3376673440d862a61091f81610c51565b610927611163565b50565b5f60035f8481526020019081526020015f205f015f8373ffffffffffffffffffffffffffffffffffffffff1673ffffffffffffffffffffffffffffffffffffffff1681526020019081526020015f205f9054906101000a900460ff16905092915050565b5f801b81565b6109a661099f610ce8565b83836111c5565b5050565b7f9f2df0fed2c77648de5860a4cc508cd0818c85b8b8a1ab4ceeef8d981c8956a681565b6109d782610577565b6109e081610c51565b6109ea8383610ecd565b50505050565b7f65d7a28e3265b37a6474929f336521b332c1681b933f6cb9f3376673440d862a81565b5f60015f8473ffffffffffffffffffffffffffffffffffffffff1673ffffffffffffffffffffffffffffffffffffffff1681526020019081526020015f205f8373ffffffffffffffffffffffffffffffffffffffff1673ffffffffffffffffffffffffffffffffffffffff1681526020019081526020015f205f9054906101000a900460ff16905092915050565b5f610aab610ce8565b90508073ffffffffffffffffffffffffffffffffffffffff168673ffffffffffffffffffffffffffffffffffffffff1614158015610af05750610aee8682610a14565b155b15610b345780866040517fe237d922000000000000000000000000000000000000000000000000000000008152600401610b2b929190612a89565b60405180910390fd5b610b41868686868661132e565b505050505050565b3373ffffffffffffffffffffffffffffffffffffffff168373ffffffffffffffffffffffffffffffffffffffff161480610b895750610b888333610a14565b5b610bc8576040517f08c379a0000000000000000000000000000000000000000000000000000000008152600401610bbf90612b74565b60405180910390fd5b610bd3838383611434565b505050565b5f7f7965db0b000000000000000000000000000000000000000000000000000000007bffffffffffffffffffffffffffffffffffffffffffffffffffffffff1916827bffffffffffffffffffffffffffffffffffffffffffffffffffffffff19161480610c4a5750610c49826114d6565b5b9050919050565b610c6281610c5d610ce8565b6115b7565b50565b5f73ffffffffffffffffffffffffffffffffffffffff168473ffffffffffffffffffffffffffffffffffffffff1603610cd5575f6040517f57f447ce000000000000000000000000000000000000000000000000000000008152600401610ccc9190612b92565b60405180910390fd5b610ce25f85858585611608565b50505050565b5f33905090565b5f73ffffffffffffffffffffffffffffffffffffffff168473ffffffffffffffffffffffffffffffffffffffff1603610d5f575f6040517f57f447ce000000000000000000000000000000000000000000000000000000008152600401610d569190612b92565b60405180910390fd5b5f73ffffffffffffffffffffffffffffffffffffffff168573ffffffffffffffffffffffffffffffffffffffff1603610dcf575f6040517f01a83514000000000000000000000000000000000000000000000000000000008152600401610dc69190612b92565b60405180910390fd5b610ddc8585858585611608565b5050505050565b5f610dee838361092a565b610ec357600160035f8581526020019081526020015f205f015f8473ffffffffffffffffffffffffffffffffffffffff1673ffffffffffffffffffffffffffffffffffffffff1681526020019081526020015f205f6101000a81548160ff021916908315150217905550610e60610ce8565b73ffffffffffffffffffffffffffffffffffffffff168273ffffffffffffffffffffffffffffffffffffffff16847f2f8788117e7eff1d82e926ec794901d17c78024a50270940304540a733656f0d60405160405180910390a460019050610ec7565b5f90505b92915050565b5f610ed8838361092a565b15610fad575f60035f8581526020019081526020015f205f015f8473ffffffffffffffffffffffffffffffffffffffff1673ffffffffffffffffffffffffffffffffffffffff1681526020019081526020015f205f6101000a81548160ff021916908315150217905550610f4a610ce8565b73ffffffffffffffffffffffffffffffffffffffff168273ffffffffffffffffffffffffffffffffffffffff16847ff6391f5c32d9c69d2a47ea670b442974b53935d1edc7fd64eb21e047a839171b60405160405180910390a460019050610fb1565b5f90505b92915050565b610fbf6116b4565b5f60045f6101000a81548160ff0219169083151502179055507f5db9ee0a495bf2e6ff9c91a7834c1ba4fdd244a5e8aa4e537bd38aeae4b073aa611001610ce8565b60405161100e9190612b92565b60405180910390a1565b5f60208202602084010151905092915050565b5f60208202602084010151905092915050565b5f73ffffffffffffffffffffffffffffffffffffffff168373ffffffffffffffffffffffffffffffffffffffff16036110ae575f6040517f01a835140000000000000000000000000000000000000000000000000000000081526004016110a59190612b92565b60405180910390fd5b6110c9835f848460405180602001604052805f815250611608565b505050565b5f73ffffffffffffffffffffffffffffffffffffffff168473ffffffffffffffffffffffffffffffffffffffff160361113e575f6040517f57f447ce0000000000000000000000000000000000000000000000000000000081526004016111359190612b92565b60405180910390fd5b5f8061114a85856116f4565b9150915061115b5f87848487611608565b505050505050565b61116b611724565b600160045f6101000a81548160ff0219169083151502179055507f62e78cea01bee320cd4e420270b5ea74000d11b0c9f74754ebdbfc544b05a2586111ae610ce8565b6040516111bb9190612b92565b60405180910390a1565b5f73ffffffffffffffffffffffffffffffffffffffff168273ffffffffffffffffffffffffffffffffffffffff1603611235575f6040517fced3e10000000000000000000000000000000000000000000000000000000000815260040161122c9190612b92565b60405180910390fd5b8060015f8573ffffffffffffffffffffffffffffffffffffffff1673ffffffffffffffffffffffffffffffffffffffff1681526020019081526020015f205f8473ffffffffffffffffffffffffffffffffffffffff1673ffffffffffffffffffffffffffffffffffffffff1681526020019081526020015f205f6101000a81548160ff0219169083151502179055508173ffffffffffffffffffffffffffffffffffffffff168373ffffffffffffffffffffffffffffffffffffffff167f17307eab39ab6107e8899845ad3d59bd9653f200f220920489ca2b5937696c3183604051611321919061205a565b60405180910390a3505050565b5f73ffffffffffffffffffffffffffffffffffffffff168473ffffffffffffffffffffffffffffffffffffffff160361139e575f6040517f57f447ce0000000000000000000000000000000000000000000000000000000081526004016113959190612b92565b60405180910390fd5b5f73ffffffffffffffffffffffffffffffffffffffff168573ffffffffffffffffffffffffffffffffffffffff160361140e575f6040517f01a835140000000000000000000000000000000000000000000000000000000081526004016114059190612b92565b60405180910390fd5b5f8061141a85856116f4565b9150915061142b8787848487611608565b50505050505050565b5f73ffffffffffffffffffffffffffffffffffffffff168373ffffffffffffffffffffffffffffffffffffffff16036114a4575f6040517f01a8351400000000000000000000000000000000000000000000000000000000815260040161149b9190612b92565b60405180910390fd5b5f806114b084846116f4565b915091506114cf855f848460405180602001604052805f815250611608565b5050505050565b5f7fd9b67a26000000000000000000000000000000000000000000000000000000007bffffffffffffffffffffffffffffffffffffffffffffffffffffffff1916827bffffffffffffffffffffffffffffffffffffffffffffffffffffffff191614806115a057507f0e89341c000000000000000000000000000000000000000000000000000000007bffffffffffffffffffffffffffffffffffffffffffffffffffffffff1916827bffffffffffffffffffffffffffffffffffffffffffffffffffffffff1916145b806115b057506115af82611765565b5b9050919050565b6115c1828261092a565b6116045780826040517fe2517d3f0000000000000000000000000000000000000000000000000000000081526004016115fb929190612bab565b60405180910390fd5b5050565b611614858585856117ce565b5f73ffffffffffffffffffffffffffffffffffffffff168473ffffffffffffffffffffffffffffffffffffffff16146116ad575f611650610ce8565b9050600184510361169c575f61166f5f8661102b90919063ffffffff16565b90505f6116855f8661102b90919063ffffffff16565b9050611695838989858589611b5e565b50506116ab565b6116aa818787878787611d0d565b5b505b5050505050565b6116bc610814565b6116f2576040517f8dfc202b00000000000000000000000000000000000000000000000000000000815260040160405180910390fd5b565b60608060405191506001825283602083015260408201905060018152826020820152604081016040529250929050565b61172c610814565b15611763576040517fd93c066500000000000000000000000000000000000000000000000000000000815260040160405180910390fd5b565b5f7f01ffc9a7000000000000000000000000000000000000000000000000000000007bffffffffffffffffffffffffffffffffffffffffffffffffffffffff1916827bffffffffffffffffffffffffffffffffffffffffffffffffffffffff1916149050919050565b805182511461181857815181516040517f5b05999100000000000000000000000000000000000000000000000000000000815260040161180f929190612ab0565b60405180910390fd5b5f611821610ce8565b90505f5b8351811015611a1d575f611842828661102b90919063ffffffff16565b90505f611858838661102b90919063ffffffff16565b90505f73ffffffffffffffffffffffffffffffffffffffff168873ffffffffffffffffffffffffffffffffffffffff161461197b575f805f8481526020019081526020015f205f8a73ffffffffffffffffffffffffffffffffffffffff1673ffffffffffffffffffffffffffffffffffffffff1681526020019081526020015f205490508181101561192757888183856040517f03dee4c500000000000000000000000000000000000000000000000000000000815260040161191e9493929190612bd2565b60405180910390fd5b8181035f808581526020019081526020015f205f8b73ffffffffffffffffffffffffffffffffffffffff1673ffffffffffffffffffffffffffffffffffffffff1681526020019081526020015f2081905550505b5f73ffffffffffffffffffffffffffffffffffffffff168773ffffffffffffffffffffffffffffffffffffffff1614611a1057805f808481526020019081526020015f205f8973ffffffffffffffffffffffffffffffffffffffff1673ffffffffffffffffffffffffffffffffffffffff1681526020019081526020015f205f828254611a089190612c42565b925050819055505b5050806001019050611825565b506001835103611ad8575f611a3b5f8561102b90919063ffffffff16565b90505f611a515f8561102b90919063ffffffff16565b90508573ffffffffffffffffffffffffffffffffffffffff168773ffffffffffffffffffffffffffffffffffffffff168473ffffffffffffffffffffffffffffffffffffffff167fc3d58168c5ae7397731d063d5bbf3d657854427343f4c083240f7aacaa2d0f628585604051611ac9929190612ab0565b60405180910390a45050611b57565b8373ffffffffffffffffffffffffffffffffffffffff168573ffffffffffffffffffffffffffffffffffffffff168273ffffffffffffffffffffffffffffffffffffffff167f4a39dc06d4c0dbc64b70af90fd698a233a518aa5d07e595d983b8c0526c8f7fb8686604051611b4e929190612c75565b60405180910390a45b5050505050565b5f8473ffffffffffffffffffffffffffffffffffffffff163b1115611d05578373ffffffffffffffffffffffffffffffffffffffff1663f23a6e6187878686866040518663ffffffff1660e01b8152600401611bbe959493929190612cfc565b6020604051808303815f875af1925050508015611bf957506040513d601f19601f82011682018060405250810190611bf69190612d68565b60015b611c7a573d805f8114611c27576040519150601f19603f3d011682016040523d82523d5f602084013e611c2c565b606091505b505f815103611c7257846040517f57f447ce000000000000000000000000000000000000000000000000000000008152600401611c699190612b92565b60405180910390fd5b805160208201fd5b63f23a6e6160e01b7bffffffffffffffffffffffffffffffffffffffffffffffffffffffff1916817bffffffffffffffffffffffffffffffffffffffffffffffffffffffff191614611d0357846040517f57f447ce000000000000000000000000000000000000000000000000000000008152600401611cfa9190612b92565b60405180910390fd5b505b505050505050565b5f8473ffffffffffffffffffffffffffffffffffffffff163b1115611eb4578373ffffffffffffffffffffffffffffffffffffffff1663bc197c8187878686866040518663ffffffff1660e01b8152600401611d6d959493929190612d93565b6020604051808303815f875af1925050508015611da857506040513d601f19601f82011682018060405250810190611da59190612d68565b60015b611e29573d805f8114611dd6576040519150601f19603f3d011682016040523d82523d5f602084013e611ddb565b606091505b505f815103611e2157846040517f57f447ce000000000000000000000000000000000000000000000000000000008152600401611e189190612b92565b60405180910390fd5b805160208201fd5b63bc197c8160e01b7bffffffffffffffffffffffffffffffffffffffffffffffffffffffff1916817bffffffffffffffffffffffffffffffffffffffffffffffffffffffff191614611eb257846040517f57f447ce000000000000000000000000000000000000000000000000000000008152600401611ea99190612b92565b60405180910390fd5b505b505050505050565b5f604051905090565b5f80fd5b5f80fd5b5f73ffffffffffffffffffffffffffffffffffffffff82169050919050565b5f611ef682611ecd565b9050919050565b611f0681611eec565b8114611f10575f80fd5b50565b5f81359050611f2181611efd565b92915050565b5f819050919050565b611f3981611f27565b8114611f43575f80fd5b50565b5f81359050611f5481611f30565b92915050565b5f8060408385031215611f7057611f6f611ec5565b5b5f611f7d85828601611f13565b9250506020611f8e85828601611f46565b9150509250929050565b611fa181611f27565b82525050565b5f602082019050611fba5f830184611f98565b92915050565b5f7fffffffff0000000000000000000000000000000000000000000000000000000082169050919050565b611ff481611fc0565b8114611ffe575f80fd5b50565b5f8135905061200f81611feb565b92915050565b5f6020828403121561202a57612029611ec5565b5b5f61203784828501612001565b91505092915050565b5f8115159050919050565b61205481612040565b82525050565b5f60208201905061206d5f83018461204b565b92915050565b5f6020828403121561208857612087611ec5565b5b5f61209584828501611f46565b91505092915050565b5f81519050919050565b5f82825260208201905092915050565b5f5b838110156120d55780820151818401526020810190506120ba565b5f8484015250505050565b5f601f19601f8301169050919050565b5f6120fa8261209e565b61210481856120a8565b93506121148185602086016120b8565b61211d816120e0565b840191505092915050565b5f6020820190508181035f83015261214081846120f0565b905092915050565b5f80fd5b7f4e487b71000000000000000000000000000000000000000000000000000000005f52604160045260245ffd5b612182826120e0565b810181811067ffffffffffffffff821117156121a1576121a061214c565b5b80604052505050565b5f6121b3611ebc565b90506121bf8282612179565b919050565b5f67ffffffffffffffff8211156121de576121dd61214c565b5b602082029050602081019050919050565b5f80fd5b5f612205612200846121c4565b6121aa565b90508083825260208201905060208402830185811115612228576122276121ef565b5b835b81811015612251578061223d8882611f46565b84526020840193505060208101905061222a565b5050509392505050565b5f82601f83011261226f5761226e612148565b5b813561227f8482602086016121f3565b91505092915050565b5f80fd5b5f67ffffffffffffffff8211156122a6576122a561214c565b5b6122af826120e0565b9050602081019050919050565b828183375f83830152505050565b5f6122dc6122d78461228c565b6121aa565b9050828152602081018484840111156122f8576122f7612288565b5b6123038482856122bc565b509392505050565b5f82601f83011261231f5761231e612148565b5b813561232f8482602086016122ca565b91505092915050565b5f805f80608085870312156123505761234f611ec5565b5b5f61235d87828801611f13565b945050602085013567ffffffffffffffff81111561237e5761237d611ec9565b5b61238a8782880161225b565b935050604085013567ffffffffffffffff8111156123ab576123aa611ec9565b5b6123b78782880161225b565b925050606085013567ffffffffffffffff8111156123d8576123d7611ec9565b5b6123e48782880161230b565b91505092959194509250565b5f819050919050565b612402816123f0565b811461240c575f80fd5b50565b5f8135905061241d816123f9565b92915050565b5f6020828403121561243857612437611ec5565b5b5f6124458482850161240f565b91505092915050565b612457816123f0565b82525050565b5f6020820190506124705f83018461244e565b92915050565b5f805f805f60a0868803121561248f5761248e611ec5565b5b5f61249c88828901611f13565b95505060206124ad88828901611f13565b945050604086013567ffffffffffffffff8111156124ce576124cd611ec9565b5b6124da8882890161225b565b935050606086013567ffffffffffffffff8111156124fb576124fa611ec9565b5b6125078882890161225b565b925050608086013567ffffffffffffffff81111561252857612527611ec9565b5b6125348882890161230b565b9150509295509295909350565b5f806040838503121561255757612556611ec5565b5b5f6125648582860161240f565b925050602061257585828601611f13565b9150509250929050565b5f67ffffffffffffffff8211156125995761259861214c565b5b602082029050602081019050919050565b5f6125bc6125b78461257f565b6121aa565b905080838252602082019050602084028301858111156125df576125de6121ef565b5b835b8181101561260857806125f48882611f13565b8452602084019350506020810190506125e1565b5050509392505050565b5f82601f83011261262657612625612148565b5b81356126368482602086016125aa565b91505092915050565b5f806040838503121561265557612654611ec5565b5b5f83013567ffffffffffffffff81111561267257612671611ec9565b5b61267e85828601612612565b925050602083013567ffffffffffffffff81111561269f5761269e611ec9565b5b6126ab8582860161225b565b9150509250929050565b5f81519050919050565b5f82825260208201905092915050565b5f819050602082019050919050565b6126e781611f27565b82525050565b5f6126f883836126de565b60208301905092915050565b5f602082019050919050565b5f61271a826126b5565b61272481856126bf565b935061272f836126cf565b805f5b8381101561275f57815161274688826126ed565b975061275183612704565b925050600181019050612732565b5085935050505092915050565b5f6020820190508181035f8301526127848184612710565b905092915050565b5f805f606084860312156127a3576127a2611ec5565b5b5f6127b086828701611f13565b935050602084013567ffffffffffffffff8111156127d1576127d0611ec9565b5b6127dd8682870161225b565b925050604084013567ffffffffffffffff8111156127fe576127fd611ec9565b5b61280a8682870161225b565b9150509250925092565b5f805f806080858703121561282c5761282b611ec5565b5b5f61283987828801611f13565b945050602061284a87828801611f46565b935050604061285b87828801611f46565b925050606085013567ffffffffffffffff81111561287c5761287b611ec9565b5b6128888782880161230b565b91505092959194509250565b61289d81612040565b81146128a7575f80fd5b50565b5f813590506128b881612894565b92915050565b5f80604083850312156128d4576128d3611ec5565b5b5f6128e185828601611f13565b92505060206128f2858286016128aa565b9150509250929050565b5f806040838503121561291257612911611ec5565b5b5f61291f85828601611f13565b925050602061293085828601611f13565b9150509250929050565b5f805f805f60a0868803121561295357612952611ec5565b5b5f61296088828901611f13565b955050602061297188828901611f13565b945050604061298288828901611f46565b935050606061299388828901611f46565b925050608086013567ffffffffffffffff8111156129b4576129b3611ec9565b5b6129c08882890161230b565b9150509295509295909350565b5f805f606084860312156129e4576129e3611ec5565b5b5f6129f186828701611f13565b9350506020612a0286828701611f46565b9250506040612a1386828701611f46565b9150509250925092565b7f4e487b71000000000000000000000000000000000000000000000000000000005f52602260045260245ffd5b5f6002820490506001821680612a6157607f821691505b602082108103612a7457612a73612a1d565b5b50919050565b612a8381611eec565b82525050565b5f604082019050612a9c5f830185612a7a565b612aa96020830184612a7a565b9392505050565b5f604082019050612ac35f830185611f98565b612ad06020830184611f98565b9392505050565b7f4e487b71000000000000000000000000000000000000000000000000000000005f52603260045260245ffd5b7f525741313135353a2063616c6c6572206973206e6f74206f776e6572206e6f725f8201527f20617070726f7665640000000000000000000000000000000000000000000000602082015250565b5f612b5e6029836120a8565b9150612b6982612b04565b604082019050919050565b5f6020820190508181035f830152612b8b81612b52565b9050919050565b5f602082019050612ba55f830184612a7a565b92915050565b5f604082019050612bbe5f830185612a7a565b612bcb602083018461244e565b9392505050565b5f608082019050612be55f830187612a7a565b612bf26020830186611f98565b612bff6040830185611f98565b612c0c6060830184611f98565b95945050505050565b7f4e487b71000000000000000000000000000000000000000000000000000000005f52601160045260245ffd5b5f612c4c82611f27565b9150612c5783611f27565b9250828201905080821115612c6f57612c6e612c15565b5b92915050565b5f6040820190508181035f830152612c8d8185612710565b90508181036020830152612ca18184612710565b90509392505050565b5f81519050919050565b5f82825260208201905092915050565b5f612cce82612caa565b612cd88185612cb4565b9350612ce88185602086016120b8565b612cf1816120e0565b840191505092915050565b5f60a082019050612d0f5f830188612a7a565b612d1c6020830187612a7a565b612d296040830186611f98565b612d366060830185611f98565b8181036080830152612d488184612cc4565b90509695505050505050565b5f81519050612d6281611feb565b92915050565b5f60208284031215612d7d57612d7c611ec5565b5b5f612d8a84828501612d54565b91505092915050565b5f60a082019050612da65f830188612a7a565b612db36020830187612a7a565b8181036040830152612dc58186612710565b90508181036060830152612dd98185612710565b90508181036080830152612ded8184612cc4565b9050969550505050505056fea264697066735822122051ef3c3ff8833cd85e6aa8645840faf626cdbe27e6221b86e2e0b5a28a5b9adb64736f6c63430008180033",
  "linkReferences": {},
  "deployedLinkReferences": {},
  "immutableReferences": {},
  "inputSourceName": "project/contracts/RWA1155.sol",
  "buildInfoId": "solc-0_8_24-1bfa05c181478b46b661183524c75e85357a142e"
}